:1000000009C016C015C014C013C012C011C010C062
:100010000FC00EC011241FBECFE9CDBF10E0A0E677
:10002000B0E001C01D92A236B107E1F786D0D0C082
:10003000E7CF2FE789EA93E0215080409040E1F735
:1000400000C00000C49A2FE789EA93E02150804065
:100050009040E1F700C00000C4980895482F26B3EF
:1000600030E0082E02C0359527950A94E2F720FD6E
:1000700015C0C49A8BE49DE10197F1F700C0000020
:10008000C49896B3892F90E002C0959587954A95BC
:10009000E2F78170992721E08227089580E090E0BF
:1000A000089520E030E02817390764F44FE759EA53
:1000B00063E0415050406040E1F700C000002F5F16
:1000C0003F4FF1CF08950F931F93CF93DF938C0190
:1000D000C0E0D0E0C017D1072CF48CE390E0E1DF62
:1000E0002196F8CFDF91CF911F910F91089582E073
:1000F00090E0B4DF892BD9F79CDF82E090E0AEDF9F
:10010000892BB9F4C39A2FE389E191E02150804013
:100110009040E1F700C00000C39890916100809189
:100120006000933519F490E0BCDFE7CF90E0CBDFBF
:10013000E4CF7FDF109260000895BC9ABB9AB89814
:10014000B998BA98C09AC19AC29A80E090E086DFC6
:10015000892B51F083E58093610080E090E07EDFA1
:10016000892BD9F766DF22C081E090E077DF892B09
:1001700061F38DE48093610081E090E06FDF892B73
:10018000D9F7F0CF80E090E069DF892BB1F481E00E
:1001900090E064DF892B51F080916000865F80934E
:1001A000600081E090E05ADF892BD9F782E090E08F
:1001B00055DF892B39F39BDFE5CF809160008F5F9E
:1001C0008093600080E090E049DF892BD9F7DFCF92
:0401D000F894FFCFD1
:00000001FF
